{
  "_format": "hh-sol-artifact-1",
  "contractName": "Token",
  "sourceName": "contracts/taken.sol",
  "abi": [
    {
      "inputs": [],
      "stateMutability": "nonpayable",
      "type": "constructor"
    },
    {
      "inputs": [],
      "name": "name",
      "outputs": [
        {
          "internalType": "string",
          "name": "",
          "type": "string"
        }
      ],
      "stateMutability": "view",
      "type": "function"
    },
    {
      "inputs": [],
      "name": "owner",
      "outputs": [
        {
          "internalType": "address",
          "name": "",
          "type": "address"
        }
      ],
      "stateMutability": "view",
      "type": "function"
    },
    {
      "inputs": [],
      "name": "symbol",
      "outputs": [
        {
          "internalType": "string",
          "name": "",
          "type": "string"
        }
      ],
      "stateMutability": "view",
      "type": "function"
    },
    {
      "inputs": [],
      "name": "totalSupply",
      "outputs": [
        {
          "internalType": "uint256",
          "name": "",
          "type": "uint256"
        }
      ],
      "stateMutability": "view",
      "type": "function"
    },
    {
      "inputs": [
        {
          "internalType": "address",
          "name": "to",
          "type": "address"
        },
        {
          "internalType": "uint256",
          "name": "amount",
          "type": "uint256"
        }
      ],
      "name": "transferToken",
      "outputs": [],
      "stateMutability": "nonpayable",
      "type": "function"
    },
    {
      "inputs": [
        {
          "internalType": "address",
          "name": "userAddress",
          "type": "address"
        }
      ],
      "name": "userBalance",
      "outputs": [
        {
          "internalType": "uint256",
          "name": "",
          "type": "uint256"
        }
      ],
      "stateMutability": "view",
      "type": "function"
    }
  ],
  "bytecode": "0x60806040526040518060400160405280600d81526020017f4861726448617420546f6b656e000000000000000000000000000000000000008152506000908051906020019061004f92919061013b565b506040518060400160405280600381526020017f48485400000000000000000000000000000000000000000000000000000000008152506001908051906020019061009b92919061013b565b506127106002553480156100ae57600080fd5b50600254600460003373ffffffffffffffffffffffffffffffffffffffff1673ffffffffffffffffffffffffffffffffffffffff1681526020019081526020016000208190555033600360006101000a81548173ffffffffffffffffffffffffffffffffffffffff021916908373ffffffffffffffffffffffffffffffffffffffff16021790555061023f565b8280546101479061020d565b90600052602060002090601f01602090048101928261016957600085556101b0565b82601f1061018257805160ff19168380011785556101b0565b828001600101855582156101b0579182015b828111156101af578251825591602001919060010190610194565b5b5090506101bd91906101c1565b5090565b5b808211156101da5760008160009055506001016101c2565b5090565b7f4e487b7100000000000000000000000000000000000000000000000000000000600052602260045260246000fd5b6000600282049050600182168061022557607f821691505b60208210811415610239576102386101de565b5b50919050565b6109518061024e6000396000f3fe608060405234801561001057600080fd5b50600436106100625760003560e01c80630103c92b1461006757806306fdde03146100975780631072cbea146100b557806318160ddd146100d15780638da5cb5b146100ef57806395d89b411461010d575b600080fd5b610081600480360381019061007c919061058d565b61012b565b60405161008e91906105d3565b60405180910390f35b61009f610174565b6040516100ac9190610687565b60405180910390f35b6100cf60048036038101906100ca91906106d5565b610202565b005b6100d96103ab565b6040516100e691906105d3565b60405180910390f35b6100f76103b1565b6040516101049190610724565b60405180910390f35b6101156103d7565b6040516101229190610687565b60405180910390f35b6000600460008373ffffffffffffffffffffffffffffffffffffffff1673ffffffffffffffffffffffffffffffffffffffff168152602001908152602001600020549050919050565b600080546101819061076e565b80601f01602080910402602001604051908101604052809291908181526020018280546101ad9061076e565b80156101fa5780601f106101cf576101008083540402835291602001916101fa565b820191906000526020600020905b8154815290600101906020018083116101dd57829003601f168201915b505050505081565b6102416040518060400160405280600981526020017f73656e646572206973000000000000000000000000000000000000000000000081525033610465565b80600460003373ffffffffffffffffffffffffffffffffffffffff1673ffffffffffffffffffffffffffffffffffffffff1681526020019081526020016000205410156102c3576040517f08c379a00000000000000000000000000000000000000000000000000000000081526004016102ba90610812565b60405180910390fd5b80600460003373ffffffffffffffffffffffffffffffffffffffff1673ffffffffffffffffffffffffffffffffffffffff1681526020019081526020016000205461030e9190610861565b600460003373ffffffffffffffffffffffffffffffffffffffff1673ffffffffffffffffffffffffffffffffffffffff1681526020019081526020016000208190555080600460008473ffffffffffffffffffffffffffffffffffffffff1673ffffffffffffffffffffffffffffffffffffffff16815260200190815260200160002060008282546103a09190610895565b925050819055505050565b60025481565b600360009054906101000a900473ffffffffffffffffffffffffffffffffffffffff1681565b600180546103e49061076e565b80601f01602080910402602001604051908101604052809291908181526020018280546104109061076e565b801561045d5780601f106104325761010080835404028352916020019161045d565b820191906000526020600020905b81548152906001019060200180831161044057829003601f168201915b505050505081565b6104fd828260405160240161047b9291906108eb565b6040516020818303038152906040527f319af333000000000000000000000000000000000000000000000000000000007bffffffffffffffffffffffffffffffffffffffffffffffffffffffff19166020820180517bffffffffffffffffffffffffffffffffffffffffffffffffffffffff8381831617835250505050610501565b5050565b60008151905060006a636f6e736f6c652e6c6f679050602083016000808483855afa5050505050565b600080fd5b600073ffffffffffffffffffffffffffffffffffffffff82169050919050565b600061055a8261052f565b9050919050565b61056a8161054f565b811461057557600080fd5b50565b60008135905061058781610561565b92915050565b6000602082840312156105a3576105a261052a565b5b60006105b184828501610578565b91505092915050565b6000819050919050565b6105cd816105ba565b82525050565b60006020820190506105e860008301846105c4565b92915050565b600081519050919050565b600082825260208201905092915050565b60005b8381101561062857808201518184015260208101905061060d565b83811115610637576000848401525b50505050565b6000601f19601f8301169050919050565b6000610659826105ee565b61066381856105f9565b935061067381856020860161060a565b61067c8161063d565b840191505092915050565b600060208201905081810360008301526106a1818461064e565b905092915050565b6106b2816105ba565b81146106bd57600080fd5b50565b6000813590506106cf816106a9565b92915050565b600080604083850312156106ec576106eb61052a565b5b60006106fa85828601610578565b925050602061070b858286016106c0565b9150509250929050565b61071e8161054f565b82525050565b60006020820190506107396000830184610715565b92915050565b7f4e487b7100000000000000000000000000000000000000000000000000000000600052602260045260246000fd5b6000600282049050600182168061078657607f821691505b6020821081141561079a5761079961073f565b5b50919050565b7f736f727279202c20796f75206861766520696e73756666696369656e7420746f60008201527f6b656e0000000000000000000000000000000000000000000000000000000000602082015250565b60006107fc6023836105f9565b9150610807826107a0565b604082019050919050565b6000602082019050818103600083015261082b816107ef565b9050919050565b7f4e487b7100000000000000000000000000000000000000000000000000000000600052601160045260246000fd5b600061086c826105ba565b9150610877836105ba565b92508282101561088a57610889610832565b5b828203905092915050565b60006108a0826105ba565b91506108ab836105ba565b9250827fffffffffffffffffffffffffffffffffffffffffffffffffffffffffffffffff038211156108e0576108df610832565b5b828201905092915050565b60006040820190508181036000830152610905818561064e565b90506109146020830184610715565b939250505056fea2646970667358221220892d79ca2bf16a5ab5f00df762f34c08d13e8ef308d07d0ca2e70fe78219a37d64736f6c63430008090033",
  "linkReferences": {},
  "deployedLinkReferences": {}
}